{
  "contractName": "TrackMine",
  "abi": [
    {
      "inputs": [],
      "stateMutability": "nonpayable",
      "type": "constructor"
    },
    {
      "anonymous": false,
      "inputs": [
        {
          "indexed": false,
          "internalType": "string",
          "name": "_message",
          "type": "string"
        }
      ],
      "name": "TrackMine_deployed",
      "type": "event"
    },
    {
      "anonymous": false,
      "inputs": [
        {
          "indexed": false,
          "internalType": "uint256",
          "name": "_productId",
          "type": "uint256"
        },
        {
          "indexed": false,
          "internalType": "address",
          "name": "_coalProducerAddress",
          "type": "address"
        },
        {
          "indexed": false,
          "internalType": "uint256",
          "name": "_time",
          "type": "uint256"
        }
      ],
      "name": "Product_Added",
      "type": "event"
    },
    {
      "anonymous": false,
      "inputs": [
        {
          "indexed": false,
          "internalType": "uint256",
          "name": "_productId",
          "type": "uint256"
        },
        {
          "indexed": false,
          "internalType": "address",
          "name": "_railwayAddress",
          "type": "address"
        },
        {
          "indexed": false,
          "internalType": "address",
          "name": "_elecProducerAddress",
          "type": "address"
        },
        {
          "indexed": false,
          "internalType": "uint256",
          "name": "_time",
          "type": "uint256"
        }
      ],
      "name": "Product_CoalTransferred",
      "type": "event"
    },
    {
      "anonymous": false,
      "inputs": [
        {
          "indexed": false,
          "internalType": "uint256",
          "name": "_productId",
          "type": "uint256"
        },
        {
          "indexed": false,
          "internalType": "address",
          "name": "_coalProducerAddress",
          "type": "address"
        },
        {
          "indexed": false,
          "internalType": "address",
          "name": "_railwayAddress",
          "type": "address"
        },
        {
          "indexed": false,
          "internalType": "uint256",
          "name": "_time",
          "type": "uint256"
        }
      ],
      "name": "Product_RailwayConfirmed",
      "type": "event"
    },
    {
      "inputs": [
        {
          "internalType": "uint256",
          "name": "",
          "type": "uint256"
        },
        {
          "internalType": "uint256",
          "name": "",
          "type": "uint256"
        }
      ],
      "name": "Product_Railways",
      "outputs": [
        {
          "internalType": "address",
          "name": "",
          "type": "address"
        }
      ],
      "stateMutability": "view",
      "type": "function",
      "constant": true
    },
    {
      "inputs": [
        {
          "internalType": "address",
          "name": "",
          "type": "address"
        },
        {
          "internalType": "uint256",
          "name": "",
          "type": "uint256"
        }
      ],
      "name": "coal_producer_inventory",
      "outputs": [
        {
          "internalType": "uint256",
          "name": "",
          "type": "uint256"
        }
      ],
      "stateMutability": "view",
      "type": "function",
      "constant": true
    },
    {
      "inputs": [
        {
          "internalType": "address",
          "name": "",
          "type": "address"
        }
      ],
      "name": "coal_producers",
      "outputs": [
        {
          "internalType": "address",
          "name": "id",
          "type": "address"
        },
        {
          "internalType": "string",
          "name": "name",
          "type": "string"
        },
        {
          "internalType": "uint256",
          "name": "total_products",
          "type": "uint256"
        }
      ],
      "stateMutability": "view",
      "type": "function",
      "constant": true
    },
    {
      "inputs": [
        {
          "internalType": "address",
          "name": "",
          "type": "address"
        },
        {
          "internalType": "uint256",
          "name": "",
          "type": "uint256"
        }
      ],
      "name": "elec_producer_orders",
      "outputs": [
        {
          "internalType": "uint256",
          "name": "",
          "type": "uint256"
        }
      ],
      "stateMutability": "view",
      "type": "function",
      "constant": true
    },
    {
      "inputs": [
        {
          "internalType": "address",
          "name": "",
          "type": "address"
        }
      ],
      "name": "elec_producers",
      "outputs": [
        {
          "internalType": "address",
          "name": "id",
          "type": "address"
        },
        {
          "internalType": "string",
          "name": "name",
          "type": "string"
        },
        {
          "internalType": "uint256",
          "name": "total_orders",
          "type": "uint256"
        }
      ],
      "stateMutability": "view",
      "type": "function",
      "constant": true
    },
    {
      "inputs": [
        {
          "internalType": "uint256",
          "name": "",
          "type": "uint256"
        }
      ],
      "name": "products",
      "outputs": [
        {
          "internalType": "uint256",
          "name": "id",
          "type": "uint256"
        },
        {
          "internalType": "string",
          "name": "name",
          "type": "string"
        },
        {
          "internalType": "uint256",
          "name": "price",
          "type": "uint256"
        },
        {
          "internalType": "string",
          "name": "ipfs_hash",
          "type": "string"
        },
        {
          "internalType": "enum TrackMine.Stage",
          "name": "stage",
          "type": "uint8"
        },
        {
          "internalType": "address",
          "name": "coal_producer",
          "type": "address"
        },
        {
          "internalType": "uint256",
          "name": "total_railways",
          "type": "uint256"
        },
        {
          "internalType": "address",
          "name": "elec_producer",
          "type": "address"
        },
        {
          "internalType": "address",
          "name": "currentOwner",
          "type": "address"
        }
      ],
      "stateMutability": "view",
      "type": "function",
      "constant": true
    },
    {
      "inputs": [
        {
          "internalType": "address",
          "name": "",
          "type": "address"
        },
        {
          "internalType": "uint256",
          "name": "",
          "type": "uint256"
        }
      ],
      "name": "railway_inventory",
      "outputs": [
        {
          "internalType": "uint256",
          "name": "",
          "type": "uint256"
        }
      ],
      "stateMutability": "view",
      "type": "function",
      "constant": true
    },
    {
      "inputs": [
        {
          "internalType": "address",
          "name": "",
          "type": "address"
        }
      ],
      "name": "railways",
      "outputs": [
        {
          "internalType": "address",
          "name": "id",
          "type": "address"
        },
        {
          "internalType": "string",
          "name": "name",
          "type": "string"
        },
        {
          "internalType": "uint256",
          "name": "total_products",
          "type": "uint256"
        }
      ],
      "stateMutability": "view",
      "type": "function",
      "constant": true
    },
    {
      "inputs": [],
      "name": "total_products",
      "outputs": [
        {
          "internalType": "uint256",
          "name": "",
          "type": "uint256"
        }
      ],
      "stateMutability": "view",
      "type": "function",
      "constant": true
    },
    {
      "inputs": [],
      "name": "getProducts",
      "outputs": [
        {
          "components": [
            {
              "internalType": "uint256",
              "name": "id",
              "type": "uint256"
            },
            {
              "internalType": "string",
              "name": "name",
              "type": "string"
            },
            {
              "internalType": "uint256",
              "name": "price",
              "type": "uint256"
            },
            {
              "internalType": "string",
              "name": "ipfs_hash",
              "type": "string"
            },
            {
              "internalType": "enum TrackMine.Stage",
              "name": "stage",
              "type": "uint8"
            },
            {
              "internalType": "address",
              "name": "coal_producer",
              "type": "address"
            },
            {
              "internalType": "uint256",
              "name": "total_railways",
              "type": "uint256"
            },
            {
              "internalType": "address",
              "name": "elec_producer",
              "type": "address"
            },
            {
              "internalType": "address",
              "name": "currentOwner",
              "type": "address"
            }
          ],
          "internalType": "struct TrackMine.Product[]",
          "name": "",
          "type": "tuple[]"
        }
      ],
      "stateMutability": "view",
      "type": "function",
      "constant": true
    },
    {
      "inputs": [
        {
          "internalType": "string",
          "name": "_name",
          "type": "string"
        }
      ],
      "name": "addCoalProducer",
      "outputs": [
        {
          "components": [
            {
              "internalType": "address",
              "name": "id",
              "type": "address"
            },
            {
              "internalType": "string",
              "name": "name",
              "type": "string"
            },
            {
              "internalType": "uint256",
              "name": "total_products",
              "type": "uint256"
            }
          ],
          "internalType": "struct TrackMine.CoalProducer",
          "name": "",
          "type": "tuple"
        }
      ],
      "stateMutability": "payable",
      "type": "function",
      "payable": true
    },
    {
      "inputs": [
        {
          "internalType": "string",
          "name": "_name",
          "type": "string"
        }
      ],
      "name": "addRailway",
      "outputs": [
        {
          "components": [
            {
              "internalType": "address",
              "name": "id",
              "type": "address"
            },
            {
              "internalType": "string",
              "name": "name",
              "type": "string"
            },
            {
              "internalType": "uint256",
              "name": "total_products",
              "type": "uint256"
            }
          ],
          "internalType": "struct TrackMine.Railway",
          "name": "",
          "type": "tuple"
        }
      ],
      "stateMutability": "payable",
      "type": "function",
      "payable": true
    },
    {
      "inputs": [
        {
          "internalType": "string",
          "name": "_name",
          "type": "string"
        }
      ],
      "name": "addElecProducer",
      "outputs": [
        {
          "components": [
            {
              "internalType": "address",
              "name": "id",
              "type": "address"
            },
            {
              "internalType": "string",
              "name": "name",
              "type": "string"
            },
            {
              "internalType": "uint256",
              "name": "total_orders",
              "type": "uint256"
            }
          ],
          "internalType": "struct TrackMine.ElecProducer",
          "name": "",
          "type": "tuple"
        }
      ],
      "stateMutability": "payable",
      "type": "function",
      "payable": true
    },
    {
      "inputs": [
        {
          "internalType": "string",
          "name": "_name",
          "type": "string"
        },
        {
          "internalType": "uint256",
          "name": "_price",
          "type": "uint256"
        },
        {
          "internalType": "string",
          "name": "_ipfs_hash",
          "type": "string"
        },
        {
          "internalType": "uint256",
          "name": "_time",
          "type": "uint256"
        }
      ],
      "name": "addProduct",
      "outputs": [
        {
          "components": [
            {
              "internalType": "uint256",
              "name": "id",
              "type": "uint256"
            },
            {
              "internalType": "string",
              "name": "name",
              "type": "string"
            },
            {
              "internalType": "uint256",
              "name": "price",
              "type": "uint256"
            },
            {
              "internalType": "string",
              "name": "ipfs_hash",
              "type": "string"
            },
            {
              "internalType": "enum TrackMine.Stage",
              "name": "stage",
              "type": "uint8"
            },
            {
              "internalType": "address",
              "name": "coal_producer",
              "type": "address"
            },
            {
              "internalType": "uint256",
              "name": "total_railways",
              "type": "uint256"
            },
            {
              "internalType": "address",
              "name": "elec_producer",
              "type": "address"
            },
            {
              "internalType": "address",
              "name": "currentOwner",
              "type": "address"
            }
          ],
          "internalType": "struct TrackMine.Product",
          "name": "",
          "type": "tuple"
        }
      ],
      "stateMutability": "payable",
      "type": "function",
      "payable": true
    },
    {
      "inputs": [
        {
          "internalType": "uint256",
          "name": "_productId",
          "type": "uint256"
        },
        {
          "internalType": "uint256",
          "name": "_time",
          "type": "uint256"
        }
      ],
      "name": "releaseProduct",
      "outputs": [
        {
          "components": [
            {
              "internalType": "uint256",
              "name": "id",
              "type": "uint256"
            },
            {
              "internalType": "string",
              "name": "name",
              "type": "string"
            },
            {
              "internalType": "uint256",
              "name": "price",
              "type": "uint256"
            },
            {
              "internalType": "string",
              "name": "ipfs_hash",
              "type": "string"
            },
            {
              "internalType": "enum TrackMine.Stage",
              "name": "stage",
              "type": "uint8"
            },
            {
              "internalType": "address",
              "name": "coal_producer",
              "type": "address"
            },
            {
              "internalType": "uint256",
              "name": "total_railways",
              "type": "uint256"
            },
            {
              "internalType": "address",
              "name": "elec_producer",
              "type": "address"
            },
            {
              "internalType": "address",
              "name": "currentOwner",
              "type": "address"
            }
          ],
          "internalType": "struct TrackMine.Product",
          "name": "",
          "type": "tuple"
        }
      ],
      "stateMutability": "payable",
      "type": "function",
      "payable": true
    },
    {
      "inputs": [
        {
          "internalType": "uint256",
          "name": "_productId",
          "type": "uint256"
        },
        {
          "internalType": "uint256",
          "name": "_time",
          "type": "uint256"
        }
      ],
      "name": "buyProduct",
      "outputs": [
        {
          "components": [
            {
              "internalType": "uint256",
              "name": "id",
              "type": "uint256"
            },
            {
              "internalType": "string",
              "name": "name",
              "type": "string"
            },
            {
              "internalType": "uint256",
              "name": "price",
              "type": "uint256"
            },
            {
              "internalType": "string",
              "name": "ipfs_hash",
              "type": "string"
            },
            {
              "internalType": "enum TrackMine.Stage",
              "name": "stage",
              "type": "uint8"
            },
            {
              "internalType": "address",
              "name": "coal_producer",
              "type": "address"
            },
            {
              "internalType": "uint256",
              "name": "total_railways",
              "type": "uint256"
            },
            {
              "internalType": "address",
              "name": "elec_producer",
              "type": "address"
            },
            {
              "internalType": "address",
              "name": "currentOwner",
              "type": "address"
            }
          ],
          "internalType": "struct TrackMine.Product",
          "name": "",
          "type": "tuple"
        }
      ],
      "stateMutability": "payable",
      "type": "function",
      "payable": true
    },
    {
      "inputs": [
        {
          "internalType": "address",
          "name": "_coal_producerId",
          "type": "address"
        }
      ],
      "name": "getCoalProducerDetails",
      "outputs": [
        {
          "components": [
            {
              "internalType": "address",
              "name": "id",
              "type": "address"
            },
            {
              "internalType": "string",
              "name": "name",
              "type": "string"
            },
            {
              "internalType": "uint256",
              "name": "total_products",
              "type": "uint256"
            }
          ],
          "internalType": "struct TrackMine.CoalProducer",
          "name": "",
          "type": "tuple"
        }
      ],
      "stateMutability": "view",
      "type": "function",
      "constant": true
    },
    {
      "inputs": [
        {
          "internalType": "address",
          "name": "_coal_producerId",
          "type": "address"
        }
      ],
      "name": "getCoalProducerInventory",
      "outputs": [
        {
          "internalType": "uint256[]",
          "name": "",
          "type": "uint256[]"
        }
      ],
      "stateMutability": "view",
      "type": "function",
      "constant": true
    },
    {
      "inputs": [
        {
          "internalType": "address",
          "name": "_railwayId",
          "type": "address"
        }
      ],
      "name": "getRailwayDetails",
      "outputs": [
        {
          "components": [
            {
              "internalType": "address",
              "name": "id",
              "type": "address"
            },
            {
              "internalType": "string",
              "name": "name",
              "type": "string"
            },
            {
              "internalType": "uint256",
              "name": "total_products",
              "type": "uint256"
            }
          ],
          "internalType": "struct TrackMine.Railway",
          "name": "",
          "type": "tuple"
        }
      ],
      "stateMutability": "view",
      "type": "function",
      "constant": true
    },
    {
      "inputs": [
        {
          "internalType": "address",
          "name": "_railwayId",
          "type": "address"
        }
      ],
      "name": "getRailwayInventory",
      "outputs": [
        {
          "internalType": "uint256[]",
          "name": "",
          "type": "uint256[]"
        }
      ],
      "stateMutability": "view",
      "type": "function",
      "constant": true
    },
    {
      "inputs": [
        {
          "internalType": "address",
          "name": "_elecProducerId",
          "type": "address"
        }
      ],
      "name": "getElecProducerDetails",
      "outputs": [
        {
          "components": [
            {
              "internalType": "address",
              "name": "id",
              "type": "address"
            },
            {
              "internalType": "string",
              "name": "name",
              "type": "string"
            },
            {
              "internalType": "uint256",
              "name": "total_orders",
              "type": "uint256"
            }
          ],
          "internalType": "struct TrackMine.ElecProducer",
          "name": "",
          "type": "tuple"
        }
      ],
      "stateMutability": "view",
      "type": "function",
      "constant": true
    },
    {
      "inputs": [
        {
          "internalType": "address",
          "name": "_elecProducerId",
          "type": "address"
        }
      ],
      "name": "getElecProducerOrders",
      "outputs": [
        {
          "internalType": "uint256[]",
          "name": "",
          "type": "uint256[]"
        }
      ],
      "stateMutability": "view",
      "type": "function",
      "constant": true
    },
    {
      "inputs": [
        {
          "internalType": "uint256",
          "name": "_productId",
          "type": "uint256"
        }
      ],
      "name": "getProductDetails",
      "outputs": [
        {
          "components": [
            {
              "internalType": "uint256",
              "name": "id",
              "type": "uint256"
            },
            {
              "internalType": "string",
              "name": "name",
              "type": "string"
            },
            {
              "internalType": "uint256",
              "name": "price",
              "type": "uint256"
            },
            {
              "internalType": "string",
              "name": "ipfs_hash",
              "type": "string"
            },
            {
              "internalType": "enum TrackMine.Stage",
              "name": "stage",
              "type": "uint8"
            },
            {
              "internalType": "address",
              "name": "coal_producer",
              "type": "address"
            },
            {
              "internalType": "uint256",
              "name": "total_railways",
              "type": "uint256"
            },
            {
              "internalType": "address",
              "name": "elec_producer",
              "type": "address"
            },
            {
              "internalType": "address",
              "name": "currentOwner",
              "type": "address"
            }
          ],
          "internalType": "struct TrackMine.Product",
          "name": "",
          "type": "tuple"
        },
        {
          "components": [
            {
              "internalType": "address",
              "name": "id",
              "type": "address"
            },
            {
              "internalType": "string",
              "name": "name",
              "type": "string"
            },
            {
              "internalType": "uint256",
              "name": "total_products",
              "type": "uint256"
            }
          ],
          "internalType": "struct TrackMine.Railway[]",
          "name": "",
          "type": "tuple[]"
        },
        {
          "components": [
            {
              "internalType": "address",
              "name": "id",
              "type": "address"
            },
            {
              "internalType": "string",
              "name": "name",
              "type": "string"
            },
            {
              "internalType": "uint256",
              "name": "total_products",
              "type": "uint256"
            }
          ],
          "internalType": "struct TrackMine.CoalProducer",
          "name": "",
          "type": "tuple"
        },
        {
          "components": [
            {
              "internalType": "address",
              "name": "id",
              "type": "address"
            },
            {
              "internalType": "string",
              "name": "name",
              "type": "string"
            },
            {
              "internalType": "uint256",
              "name": "total_orders",
              "type": "uint256"
            }
          ],
          "internalType": "struct TrackMine.ElecProducer",
          "name": "",
          "type": "tuple"
        }
      ],
      "stateMutability": "view",
      "type": "function",
      "constant": true
    },
    {
      "inputs": [
        {
          "internalType": "uint256",
          "name": "_productId",
          "type": "uint256"
        }
      ],
      "name": "getCurrentStatus",
      "outputs": [
        {
          "internalType": "enum TrackMine.Stage",
          "name": "",
          "type": "uint8"
        },
        {
          "internalType": "address",
          "name": "",
          "type": "address"
        },
        {
          "components": [
            {
              "internalType": "address",
              "name": "id",
              "type": "address"
            },
            {
              "internalType": "string",
              "name": "name",
              "type": "string"
            },
            {
              "internalType": "uint256",
              "name": "total_products",
              "type": "uint256"
            }
          ],
          "internalType": "struct TrackMine.CoalProducer",
          "name": "",
          "type": "tuple"
        },
        {
          "components": [
            {
              "internalType": "address",
              "name": "id",
              "type": "address"
            },
            {
              "internalType": "string",
              "name": "name",
              "type": "string"
            },
            {
              "internalType": "uint256",
              "name": "total_orders",
              "type": "uint256"
            }
          ],
          "internalType": "struct TrackMine.ElecProducer",
          "name": "",
          "type": "tuple"
        },
        {
          "components": [
            {
              "internalType": "address",
              "name": "id",
              "type": "address"
            },
            {
              "internalType": "string",
              "name": "name",
              "type": "string"
            },
            {
              "internalType": "uint256",
              "name": "total_products",
              "type": "uint256"
            }
          ],
          "internalType": "struct TrackMine.Railway",
          "name": "",
          "type": "tuple"
        }
      ],
      "stateMutability": "view",
      "type": "function",
      "constant": true
    },
    {
      "inputs": [
        {
          "internalType": "address",
          "name": "_user",
          "type": "address"
        }
      ],
      "name": "getUserType",
      "outputs": [
        {
          "internalType": "enum TrackMine.Role",
          "name": "",
          "type": "uint8"
        }
      ],
      "stateMutability": "view",
      "type": "function",
      "constant": true
    }
  ],
  "bytecode": "0x60806040523480156200001157600080fd5b50600080819055507f7b156246723a58575721985ed99046dbbecb42c4dc7265035b5f6e3a9ceab4dc6040516200004890620000b7565b60405180910390a1620000d9565b600082825260208201905092915050565b7f4465547261636520686173206265656e206465706c6f79656400000000000000600082015250565b60006200009f60198362000056565b9150620000ac8262000067565b602082019050919050565b60006020820190508181036000830152620000d28162000090565b9050919050565b615e8380620000e96000396000f3fe6080604052600436106101665760003560e01c80637efa6959116100d1578063abe641e21161008a578063ce1e8a4d11610064578063ce1e8a4d1461061c578063d6630a1714610659578063f4a5319614610696578063f8f3b8e5146106c657610166565b8063abe641e214610577578063be66e216146105b4578063c29b2f20146105f157610166565b80637efa6959146104175780638423d2c1146104425780638b3f863f1461047f578063a01053e4146104bc578063a0aa13c6146104f9578063a13ac4151461053a57610166565b8063472f3ee311610123578063472f3ee3146102b657806353b62866146102f55780635873fa5d146103255780636813b53b1461036257806374c68f26146103a25780637acc0b20146103d257610166565b80630458c5d71461016b578063301ec4f51461019b57806332518a52146101cb5780633543e6dc1461020a5780633a2a925c146102495780633c35150f14610279575b600080fd5b610185600480360381019061018091906149e2565b610703565b6040516101929190614c4e565b60405180910390f35b6101b560048036038101906101b09190614da5565b6113b9565b6040516101c29190614e3e565b60405180910390f35b3480156101d757600080fd5b506101f260048036038101906101ed9190614e8c565b611555565b60405161020193929190614f21565b60405180910390f35b34801561021657600080fd5b50610231600480360381019061022c9190614e8c565b611627565b60405161024093929190614f21565b60405180910390f35b610263600480360381019061025e9190614f5f565b6116f9565b6040516102709190614c4e565b60405180910390f35b34801561028557600080fd5b506102a0600480360381019061029b9190614e8c565b611e16565b6040516102ad91906150ad565b60405180910390f35b3480156102c257600080fd5b506102dd60048036038101906102d89190614e8c565b611eb3565b6040516102ec93929190614f21565b60405180910390f35b61030f600480360381019061030a91906149e2565b611f85565b60405161031c9190614c4e565b60405180910390f35b34801561033157600080fd5b5061034c60048036038101906103479190614e8c565b612dfa565b60405161035991906150ad565b60405180910390f35b34801561036e57600080fd5b50610389600480360381019061038491906150cf565b612e97565b604051610399949392919061525e565b60405180910390f35b6103bc60048036038101906103b79190614da5565b6132f5565b6040516103c9919061530f565b60405180910390f35b3480156103de57600080fd5b506103f960048036038101906103f491906150cf565b61349c565b60405161040e99989796959493929190615340565b60405180910390f35b34801561042357600080fd5b5061042c613677565b60405161043991906153db565b60405180910390f35b34801561044e57600080fd5b50610469600480360381019061046491906149e2565b61367d565b60405161047691906153f6565b60405180910390f35b34801561048b57600080fd5b506104a660048036038101906104a19190614e8c565b6136cb565b6040516104b39190615459565b60405180910390f35b3480156104c857600080fd5b506104e360048036038101906104de9190615474565b6138b3565b6040516104f091906153db565b60405180910390f35b34801561050557600080fd5b50610520600480360381019061051b91906150cf565b6138e4565b6040516105319594939291906154b4565b60405180910390f35b34801561054657600080fd5b50610561600480360381019061055c9190614e8c565b613ce6565b60405161056e919061551c565b60405180910390f35b34801561058357600080fd5b5061059e60048036038101906105999190614e8c565b613e37565b6040516105ab9190614e3e565b60405180910390f35b3480156105c057600080fd5b506105db60048036038101906105d69190614e8c565b613f88565b6040516105e8919061530f565b60405180910390f35b3480156105fd57600080fd5b506106066140d9565b60405161061391906156cc565b60405180910390f35b34801561062857600080fd5b50610643600480360381019061063e9190615474565b6143b8565b60405161065091906153db565b60405180910390f35b34801561066557600080fd5b50610680600480360381019061067b9190615474565b6143e9565b60405161068d91906153db565b60405180910390f35b6106b060048036038101906106ab9190614da5565b61441a565b6040516106bd919061551c565b60405180910390f35b3480156106d257600080fd5b506106ed60048036038101906106e89190614e8c565b6145c1565b6040516106fa91906150ad565b60405180910390f35b61070b61470c565b33600073ffffffffffffffffffffffffffffffffffffffff16600360008373ffffffffffffffffffffffffffffffffffffffff1673ffffffffffffffffffffffffffffffffffffffff16815260200190815260200160002060000160009054906101000a900473ffffffffffffffffffffffffffffffffffffffff1673ffffffffffffffffffffffffffffffffffffffff1614156107de576040517f08c379a00000000000000000000000000000000000000000000000000000000081526004016107d590615760565b60405180910390fd5b6000548410610822576040517f08c379a0000000000000000000000000000000000000000000000000000000008152600401610819906157cc565b60405180910390fd5b600060018581548110610838576108376157ec565b5b9060005260206000209060080201604051806101200160405290816000820154815260200160018201805461086c9061584a565b80601f01602080910402602001604051908101604052809291908181526020018280546108989061584a565b80156108e55780601f106108ba576101008083540402835291602001916108e5565b820191906000526020600020905b8154815290600101906020018083116108c857829003601f168201915b50505050508152602001600282015481526020016003820180546109089061584a565b80601f01602080910402602001604051908101604052809291908181526020018280546109349061584a565b80156109815780601f1061095657610100808354040283529160200191610981565b820191906000526020600020905b81548152906001019060200180831161096457829003601f168201915b505050505081526020016004820160009054906101000a900460ff1660028111156109af576109ae614aca565b5b60028111156109c1576109c0614aca565b5b81526020016004820160019054906101000a900473ffffffffffffffffffffffffffffffffffffffff1673ffffffffffffffffffffffffffffffffffffffff1673ffffffffffffffffffffffffffffffffffffffff168152602001600582015481526020016006820160009054906101000a900473ffffffffffffffffffffffffffffffffffffffff1673ffffffffffffffffffffffffffffffffffffffff1673ffffffffffffffffffffffffffffffffffffffff1681526020016007820160009054906101000a900473ffffffffffffffffffffffffffffffffffffffff1673ffffffffffffffffffffffffffffffffffffffff1673ffffffffffffffffffffffffffffffffffffffff1681525050905060006002811115610ae757610ae6614aca565b5b81608001516002811115610afe57610afd614aca565b5b14610b3e576040517f08c379a0000000000000000000000000000000000000000000000000000000008152600401610b35906158ee565b60405180910390fd5b60056000868152602001908152602001600020339080600181540180825580915050600190039060005260206000200160009091909190916101000a81548173ffffffffffffffffffffffffffffffffffffffff021916908373ffffffffffffffffffffffffffffffffffffffff1602179055508060c0018051809190610bc49061593d565b81525050600181608001906002811115610be157610be0614aca565b5b90816002811115610bf557610bf4614aca565b5b815250503381610100019073ffffffffffffffffffffffffffffffffffffffff16908173ffffffffffffffffffffffffffffffffffffffff16815250506000600260008360a0015173ffffffffffffffffffffffffffffffffffffffff1673ffffffffffffffffffffffffffffffffffffffff1681526020019081526020016000206040518060600160405290816000820160009054906101000a900473ffffffffffffffffffffffffffffffffffffffff1673ffffffffffffffffffffffffffffffffffffffff1673ffffffffffffffffffffffffffffffffffffffff168152602001600182018054610ce89061584a565b80601f0160208091040260200160405190810160405280929190818152602001828054610d149061584a565b8015610d615780601f10610d3657610100808354040283529160200191610d61565b820191906000526020600020905b815481529060010190602001808311610d4457829003601f168201915b50505050508152602001600282015481525050905060005b8160400151811015610ea25786600660008560a0015173ffffffffffffffffffffffffffffffffffffffff1673ffffffffffffffffffffffffffffffffffffffff1681526020019081526020016000208281548110610ddb57610dda6157ec565b5b90600052602060002001541415610e8f57610e3881600660008660a0015173ffffffffffffffffffffffffffffffffffffffff1673ffffffffffffffffffffffffffffffffffffffff16815260200190815260200160002061465e565b600660008560a0015173ffffffffffffffffffffffffffffffffffffffff1673ffffffffffffffffffffffffffffffffffffffff168152602001908152602001600020908054610e899291906147ac565b50610ea2565b8080610e9a9061593d565b915050610d79565b50600181604001818151610eb69190615986565b9150818152505080600260008460a0015173ffffffffffffffffffffffffffffffffffffffff1673ffffffffffffffffffffffffffffffffffffffff16815260200190815260200160002060008201518160000160006101000a81548173ffffffffffffffffffffffffffffffffffffffff021916908373ffffffffffffffffffffffffffffffffffffffff1602179055506020820151816001019080519060200190610f649291906147fe565b5060408201518160020155905050600760003373ffffffffffffffffffffffffffffffffffffffff1673ffffffffffffffffffffffffffffffffffffffff168152602001908152602001600020826000015190806001815401808255809150506001900390600052602060002001600090919091909150556000600360003373ffffffffffffffffffffffffffffffffffffffff1673ffffffffffffffffffffffffffffffffffffffff1681526020019081526020016000206040518060600160405290816000820160009054906101000a900473ffffffffffffffffffffffffffffffffffffffff1673ffffffffffffffffffffffffffffffffffffffff1673ffffffffffffffffffffffffffffffffffffffff16815260200160018201805461108e9061584a565b80601f01602080910402602001604051908101604052809291908181526020018280546110ba9061584a565b80156111075780601f106110dc57610100808354040283529160200191611107565b820191906000526020600020905b8154815290600101906020018083116110ea57829003601f168201915b50505050508152602001600282015481525050905060018160400181815161112f91906159ba565b9150818152505080600360003373ffffffffffffffffffffffffffffffffffffffff1673ffffffffffffffffffffffffffffffffffffffff16815260200190815260200160002060008201518160000160006101000a81548173ffffffffffffffffffffffffffffffffffffffff021916908373ffffffffffffffffffffffffffffffffffffffff16021790555060208201518160010190805190602001906111d99291906147fe565b506040820151816002015590505082600188815481106111fc576111fb6157ec565b5b90600052602060002090600802016000820151816000015560208201518160010190805190602001906112309291906147fe565b506040820151816002015560608201518160030190805190602001906112579291906147fe565b5060808201518160040160006101000a81548160ff0219169083600281111561128357611282614aca565b5b021790555060a08201518160040160016101000a81548173ffffffffffffffffffffffffffffffffffffffff021916908373ffffffffffffffffffffffffffffffffffffffff16021790555060c0820151816005015560e08201518160060160006101000a81548173ffffffffffffffffffffffffffffffffffffffff021916908373ffffffffffffffffffffffffffffffffffffffff1602179055506101008201518160070160006101000a81548173ffffffffffffffffffffffffffffffffffffffff021916908373ffffffffffffffffffffffffffffffffffffffff1602179055509050507f8d912840f925ac21172cdb00d3ccbc8e8c322558eabed41898c672ce1b0a5038878460a0015133896040516113a49493929190615a10565b60405180910390a18294505050505092915050565b6113c1614884565b6000600460003373ffffffffffffffffffffffffffffffffffffffff1673ffffffffffffffffffffffffffffffffffffffff16815260200190815260200160002060010180546114109061584a565b905014611452576040517f08c379a000000000000000000000000000000000000000000000000000000000815260040161144990615ac7565b60405180910390fd5b61145a614884565b33816000019073ffffffffffffffffffffffffffffffffffffffff16908173ffffffffffffffffffffffffffffffffffffffff168152505082816020018190525080600460003373ffffffffffffffffffffffffffffffffffffffff1673ffffffffffffffffffffffffffffffffffffffff16815260200190815260200160002060008201518160000160006101000a81548173ffffffffffffffffffffffffffffffffffffffff021916908373ffffffffffffffffffffffffffffffffffffffff160217905550602082015181600101908051906020019061153e9291906147fe565b506040820151816002015590505080915050919050565b60046020528060005260406000206000915090508060000160009054906101000a900473ffffffffffffffffffffffffffffffffffffffff169080600101805461159e9061584a565b80601f01602080910402602001604051908101604052809291908181526020018280546115ca9061584a565b80156116175780601f106115ec57610100808354040283529160200191611617565b820191906000526020600020905b8154815290600101906020018083116115fa57829003601f168201915b5050505050908060020154905083565b60026020528060005260406000206000915090508060000160009054906101000a900473ffffffffffffffffffffffffffffffffffffffff16908060010180546116709061584a565b80601f016020809104026020016040519081016040528092919081815260200182805461169c9061584a565b80156116e95780601f106116be576101008083540402835291602001916116e9565b820191906000526020600020905b8154815290600101906020018083116116cc57829003601f168201915b5050505050908060020154905083565b61170161470c565b33600073ffffffffffffffffffffffffffffffffffffffff16600260008373ffffffffffffffffffffffffffffffffffffffff1673ffffffffffffffffffffffffffffffffffffffff16815260200190815260200160002060000160009054906101000a900473ffffffffffffffffffffffffffffffffffffffff1673ffffffffffffffffffffffffffffffffffffffff1614156117d4576040517f08c379a00000000000000000000000000000000000000000000000000000000081526004016117cb90615b59565b60405180910390fd5b600073ffffffffffffffffffffffffffffffffffffffff16600260003373ffffffffffffffffffffffffffffffffffffffff1673ffffffffffffffffffffffffffffffffffffffff16815260200190815260200160002060000160009054906101000a900473ffffffffffffffffffffffffffffffffffffffff1673ffffffffffffffffffffffffffffffffffffffff1614156118a6576040517f08c379a000000000000000000000000000000000000000000000000000000000815260040161189d90615beb565b60405180910390fd5b6000600260003373ffffffffffffffffffffffffffffffffffffffff1673ffffffffffffffffffffffffffffffffffffffff1681526020019081526020016000206040518060600160405290816000820160009054906101000a900473ffffffffffffffffffffffffffffffffffffffff1673ffffffffffffffffffffffffffffffffffffffff1673ffffffffffffffffffffffffffffffffffffffff1681526020016001820180546119589061584a565b80601f01602080910402602001604051908101604052809291908181526020018280546119849061584a565b80156119d15780601f106119a6576101008083540402835291602001916119d1565b820191906000526020600020905b8154815290600101906020018083116119b457829003601f168201915b5050505050815260200160028201548152505090506119ee61470c565b6000548160000181815250508781602001819052508681604001818152505085816060018190525081600001518160a0019073ffffffffffffffffffffffffffffffffffffffff16908173ffffffffffffffffffffffffffffffffffffffff1681525050600081608001906002811115611a6b57611a6a614aca565b5b90816002811115611a7f57611a7e614aca565b5b8152505060008160c00181815250503381610100019073ffffffffffffffffffffffffffffffffffffffff16908173ffffffffffffffffffffffffffffffffffffffff16815250506001819080600181540180825580915050600190039060005260206000209060080201600090919091909150600082015181600001556020820151816001019080519060200190611b199291906147fe565b50604082015181600201556060820151816003019080519060200190611b409291906147fe565b5060808201518160040160006101000a81548160ff02191690836002811115611b6c57611b6b614aca565b5b021790555060a08201518160040160016101000a81548173ffffffffffffffffffffffffffffffffffffffff021916908373ffffffffffffffffffffffffffffffffffffffff16021790555060c0820151816005015560e08201518160060160006101000a81548173ffffffffffffffffffffffffffffffffffffffff021916908373ffffffffffffffffffffffffffffffffffffffff1602179055506101008201518160070160006101000a81548173ffffffffffffffffffffffffffffffffffffffff021916908373ffffffffffffffffffffffffffffffffffffffff16021790555050506001600080828254611c6591906159ba565b92505081905550600660003373ffffffffffffffffffffffffffffffffffffffff1673ffffffffffffffffffffffffffffffffffffffff16815260200190815260200160002081600001519080600181540180825580915050600190039060005260206000200160009091909190915055600182604001818151611ce991906159ba565b9150818152505081600260003373ffffffffffffffffffffffffffffffffffffffff1673ffffffffffffffffffffffffffffffffffffffff16815260200190815260200160002060008201518160000160006101000a81548173ffffffffffffffffffffffffffffffffffffffff021916908373ffffffffffffffffffffffffffffffffffffffff1602179055506020820151816001019080519060200190611d939291906147fe565b506040820151816002015590505060096005600083600001518152602001908152602001600020908054611dc89291906148bb565b507f2d7e548cd55c5877c277ad065972404b06ea61314bd4d49a46c1aaaa1d353cd781600001513387604051611e0093929190615c0b565b60405180910390a1809350505050949350505050565b60606000600660008473ffffffffffffffffffffffffffffffffffffffff1673ffffffffffffffffffffffffffffffffffffffff168152602001908152602001600020805480602002602001604051908101604052809291908181526020018280548015611ea357602002820191906000526020600020905b815481526020019060010190808311611e8f575b5050505050905080915050919050565b60036020528060005260406000206000915090508060000160009054906101000a900473ffffffffffffffffffffffffffffffffffffffff1690806001018054611efc9061584a565b80601f0160208091040260200160405190810160405280929190818152602001828054611f289061584a565b8015611f755780601f10611f4a57610100808354040283529160200191611f75565b820191906000526020600020905b815481529060010190602001808311611f5857829003601f168201915b5050505050908060020154905083565b611f8d61470c565b33600073ffffffffffffffffffffffffffffffffffffffff16600460008373ffffffffffffffffffffffffffffffffffffffff1673ffffffffffffffffffffffffffffffffffffffff16815260200190815260200160002060000160009054906101000a900473ffffffffffffffffffffffffffffffffffffffff1673ffffffffffffffffffffffffffffffffffffffff161415612060576040517f08c379a000000000000000000000000000000000000000000000000000000000815260040161205790615cb4565b60405180910390fd5b60005484106120a4576040517f08c379a000000000000000000000000000000000000000000000000000000000815260040161209b906157cc565b60405180910390fd5b6000600185815481106120ba576120b96157ec565b5b906000526020600020906008020160405180610120016040529081600082015481526020016001820180546120ee9061584a565b80601f016020809104026020016040519081016040528092919081815260200182805461211a9061584a565b80156121675780601f1061213c57610100808354040283529160200191612167565b820191906000526020600020905b81548152906001019060200180831161214a57829003601f168201915b505050505081526020016002820154815260200160038201805461218a9061584a565b80601f01602080910402602001604051908101604052809291908181526020018280546121b69061584a565b80156122035780601f106121d857610100808354040283529160200191612203565b820191906000526020600020905b8154815290600101906020018083116121e657829003601f168201915b505050505081526020016004820160009054906101000a900460ff16600281111561223157612230614aca565b5b600281111561224357612242614aca565b5b81526020016004820160019054906101000a900473ffffffffffffffffffffffffffffffffffffffff1673ffffffffffffffffffffffffffffffffffffffff1673ffffffffffffffffffffffffffffffffffffffff168152602001600582015481526020016006820160009054906101000a900473ffffffffffffffffffffffffffffffffffffffff1673ffffffffffffffffffffffffffffffffffffffff1673ffffffffffffffffffffffffffffffffffffffff1681526020016007820160009054906101000a900473ffffffffffffffffffffffffffffffffffffffff1673ffffffffffffffffffffffffffffffffffffffff1673ffffffffffffffffffffffffffffffffffffffff168152505090506001600281111561236957612368614aca565b5b816080015160028111156123805761237f614aca565b5b146123c0576040517f08c379a00000000000000000000000000000000000000000000000000000000081526004016123b790615d6c565b60405180910390fd5b6000600560008360000151815260200190815260200160002060018360c001516123ea9190615986565b815481106123fb576123fa6157ec565b5b9060005260206000200160009054906101000a900473ffffffffffffffffffffffffffffffffffffffff1690506000600360008373ffffffffffffffffffffffffffffffffffffffff1673ffffffffffffffffffffffffffffffffffffffff1681526020019081526020016000206040518060600160405290816000820160009054906101000a900473ffffffffffffffffffffffffffffffffffffffff1673ffffffffffffffffffffffffffffffffffffffff1673ffffffffffffffffffffffffffffffffffffffff1681526020016001820180546124da9061584a565b80601f01602080910402602001604051908101604052809291908181526020018280546125069061584a565b80156125535780601f1061252857610100808354040283529160200191612553565b820191906000526020600020905b81548152906001019060200180831161253657829003601f168201915b5050505050815260200160028201548152505090506000600460003373ffffffffffffffffffffffffffffffffffffffff1673ffffffffffffffffffffffffffffffffffffffff1681526020019081526020016000206040518060600160405290816000820160009054906101000a900473ffffffffffffffffffffffffffffffffffffffff1673ffffffffffffffffffffffffffffffffffffffff1673ffffffffffffffffffffffffffffffffffffffff16815260200160018201805461261a9061584a565b80601f01602080910402602001604051908101604052809291908181526020018280546126469061584a565b80156126935780601f1061266857610100808354040283529160200191612693565b820191906000526020600020905b81548152906001019060200180831161267657829003601f168201915b5050505050815260200160028201548152505090506002846080019060028111156126c1576126c0614aca565b5b908160028111156126d5576126d4614aca565b5b8152505080600001518460e0019073ffffffffffffffffffffffffffffffffffffffff16908173ffffffffffffffffffffffffffffffffffffffff16815250503384610100019073ffffffffffffffffffffffffffffffffffffffff16908173ffffffffffffffffffffffffffffffffffffffff16815250506000600560008a81526020019081526020016000206001600560008c8152602001908152602001600020805490506127869190615986565b81548110612797576127966157ec565b5b9060005260206000200160009054906101000a900473ffffffffffffffffffffffffffffffffffffffff1690506000600360008373ffffffffffffffffffffffffffffffffffffffff1673ffffffffffffffffffffffffffffffffffffffff1681526020019081526020016000206040518060600160405290816000820160009054906101000a900473ffffffffffffffffffffffffffffffffffffffff1673ffffffffffffffffffffffffffffffffffffffff1673ffffffffffffffffffffffffffffffffffffffff1681526020016001820180546128769061584a565b80601f01602080910402602001604051908101604052809291908181526020018280546128a29061584a565b80156128ef5780601f106128c4576101008083540402835291602001916128ef565b820191906000526020600020905b8154815290600101906020018083116128d257829003601f168201915b50505050508152602001600282015481525050905060005b8160400151811015612a24578a600760008573ffffffffffffffffffffffffffffffffffffffff1673ffffffffffffffffffffffffffffffffffffffff1681526020019081526020016000208281548110612965576129646157ec565b5b90600052602060002001541415612a11576129be81600760008673ffffffffffffffffffffffffffffffffffffffff1673ffffffffffffffffffffffffffffffffffffffff16815260200190815260200160002061465e565b600760008573ffffffffffffffffffffffffffffffffffffffff1673ffffffffffffffffffffffffffffffffffffffff168152602001908152602001600020908054612a0b9291906147ac565b50612a24565b8080612a1c9061593d565b915050612907565b50600181604001818151612a389190615986565b9150818152505080600360008473ffffffffffffffffffffffffffffffffffffffff1673ffffffffffffffffffffffffffffffffffffffff16815260200190815260200160002060008201518160000160006101000a81548173ffffffffffffffffffffffffffffffffffffffff021916908373ffffffffffffffffffffffffffffffffffffffff1602179055506020820151816001019080519060200190612ae29291906147fe565b5060408201518160020155905050600860003373ffffffffffffffffffffffffffffffffffffffff1673ffffffffffffffffffffffffffffffffffffffff16815260200190815260200160002086600001519080600181540180825580915050600190039060005260206000200160009091909190915055600183604001818151612b6d91906159ba565b9150818152505082600460003373ffffffffffffffffffffffffffffffffffffffff1673ffffffffffffffffffffffffffffffffffffffff16815260200190815260200160002060008201518160000160006101000a81548173ffffffffffffffffffffffffffffffffffffffff021916908373ffffffffffffffffffffffffffffffffffffffff1602179055506020820151816001019080519060200190612c179291906147fe565b50604082015181600201559050508560018b81548110612c3a57612c396157ec565b5b9060005260206000209060080201600082015181600001556020820151816001019080519060200190612c6e9291906147fe565b50604082015181600201556060820151816003019080519060200190612c959291906147fe565b5060808201518160040160006101000a81548160ff02191690836002811115612cc157612cc0614aca565b5b021790555060a08201518160040160016101000a81548173ffffffffffffffffffffffffffffffffffffffff021916908373ffffffffffffffffffffffffffffffffffffffff16021790555060c0820151816005015560e08201518160060160006101000a81548173ffffffffffffffffffffffffffffffffffffffff021916908373ffffffffffffffffffffffffffffffffffffffff1602179055506101008201518160070160006101000a81548173ffffffffffffffffffffffffffffffffffffffff021916908373ffffffffffffffffffffffffffffffffffffffff1602179055509050507f1039cfa6b091e6074c68339313eb6c606205a8644294b6547d581d186b5185208a8560000151338c604051612de29493929190615a10565b60405180910390a18597505050505050505092915050565b60606000600860008473ffffffffffffffffffffffffffffffffffffffff1673ffffffffffffffffffffffffffffffffffffffff168152602001908152602001600020805480602002602001604051908101604052809291908181526020018280548015612e8757602002820191906000526020600020905b815481526020019060010190808311612e73575b5050505050905080915050919050565b612e9f61470c565b6060612ea961490d565b612eb1614884565b600060018681548110612ec757612ec66157ec565b5b90600052602060002090600802016040518061012001604052908160008201548152602001600182018054612efb9061584a565b80601f0160208091040260200160405190810160405280929190818152602001828054612f279061584a565b8015612f745780601f10612f4957610100808354040283529160200191612f74565b820191906000526020600020905b815481529060010190602001808311612f5757829003601f168201915b5050505050815260200160028201548152602001600382018054612f979061584a565b80601f0160208091040260200160405190810160405280929190818152602001828054612fc39061584a565b80156130105780601f10612fe557610100808354040283529160200191613010565b820191906000526020600020905b815481529060010190602001808311612ff357829003601f168201915b505050505081526020016004820160009054906101000a900460ff16600281111561303e5761303d614aca565b5b60028111156130505761304f614aca565b5b81526020016004820160019054906101000a900473ffffffffffffffffffffffffffffffffffffffff1673ffffffffffffffffffffffffffffffffffffffff1673ffffffffffffffffffffffffffffffffffffffff168152602001600582015481526020016006820160009054906101000a900473ffffffffffffffffffffffffffffffffffffffff1673ffffffffffffffffffffffffffffffffffffffff1673ffffffffffffffffffffffffffffffffffffffff1681526020016007820160009054906101000a900473ffffffffffffffffffffffffffffffffffffffff1673ffffffffffffffffffffffffffffffffffffffff1673ffffffffffffffffffffffffffffffffffffffff168152505090506000600560008881526020019081526020016000208054806020026020016040519081016040528092919081815260200182805480156131f757602002820191906000526020600020905b8160009054906101000a900473ffffffffffffffffffffffffffffffffffffffff1673ffffffffffffffffffffffffffffffffffffffff16815260200190600101908083116131ad575b5050505050905060008260c0015167ffffffffffffffff81111561321e5761321d614c7a565b5b60405190808252806020026020018201604052801561325757816020015b613244614944565b81526020019060019003908161323c5790505b50905060006132698460a00151613ce6565b9050600061327a8560e00151613e37565b905060005b84518110156132dc576132ab85828151811061329e5761329d6157ec565b5b6020026020010151613f88565b8482815181106132be576132bd6157ec565b5b602002602001018190525080806132d49061593d565b91505061327f565b5084838383985098509850985050505050509193509193565b6132fd614944565b6000600360003373ffffffffffffffffffffffffffffffffffffffff1673ffffffffffffffffffffffffffffffffffffffff168152602001908152602001600020600101805461334c9061584a565b90501461338e576040517f08c379a000000000000000000000000000000000000000000000000000000000815260040161338590615ac7565b60405180910390fd5b613396614944565b33816000019073ffffffffffffffffffffffffffffffffffffffff16908173ffffffffffffffffffffffffffffffffffffffff1681525050828160200181905250600081604001818152505080600360003373ffffffffffffffffffffffffffffffffffffffff1673ffffffffffffffffffffffffffffffffffffffff16815260200190815260200160002060008201518160000160006101000a81548173ffffffffffffffffffffffffffffffffffffffff021916908373ffffffffffffffffffffffffffffffffffffffff16021790555060208201518160010190805190602001906134859291906147fe565b506040820151816002015590505080915050919050565b600181815481106134ac57600080fd5b90600052602060002090600802016000915090508060000154908060010180546134d59061584a565b80601f01602080910402602001604051908101604052809291908181526020018280546135019061584a565b801561354e5780601f106135235761010080835404028352916020019161354e565b820191906000526020600020905b81548152906001019060200180831161353157829003601f168201915b5050505050908060020154908060030180546135699061584a565b80601f01602080910402602001604051908101604052809291908181526020018280546135959061584a565b80156135e25780601f106135b7576101008083540402835291602001916135e2565b820191906000526020600020905b8154815290600101906020018083116135c557829003601f168201915b5050505050908060040160009054906101000a900460ff16908060040160019054906101000a900473ffffffffffffffffffffffffffffffffffffffff16908060050154908060060160009054906101000a900473ffffffffffffffffffffffffffffffffffffffff16908060070160009054906101000a900473ffffffffffffffffffffffffffffffffffffffff16905089565b60005481565b6005602052816000526040600020818154811061369957600080fd5b906000526020600020016000915091509054906101000a900473ffffffffffffffffffffffffffffffffffffffff1681565b60008073ffffffffffffffffffffffffffffffffffffffff16600260008473ffffffffffffffffffffffffffffffffffffffff1673ffffffffffffffffffffffffffffffffffffffff16815260200190815260200160002060000160009054906101000a900473ffffffffffffffffffffffffffffffffffffffff1673ffffffffffffffffffffffffffffffffffffffff161461376b57600090506138ae565b600073ffffffffffffffffffffffffffffffffffffffff16600360008473ffffffffffffffffffffffffffffffffffffffff1673ffffffffffffffffffffffffffffffffffffffff16815260200190815260200160002060000160009054906101000a900473ffffffffffffffffffffffffffffffffffffffff1673ffffffffffffffffffffffffffffffffffffffff161461380a57600190506138ae565b600073ffffffffffffffffffffffffffffffffffffffff16600460008473ffffffffffffffffffffffffffffffffffffffff1673ffffffffffffffffffffffffffffffffffffffff16815260200190815260200160002060000160009054906101000a900473ffffffffffffffffffffffffffffffffffffffff1673ffffffffffffffffffffffffffffffffffffffff16146138a957600290506138ae565b600390505b919050565b600860205281600052604060002081815481106138cf57600080fd5b90600052602060002001600091509150505481565b6000806138ef61490d565b6138f7614884565b6138ff614944565b60008060018881548110613916576139156157ec565b5b9060005260206000209060080201604051806101200160405290816000820154815260200160018201805461394a9061584a565b80601f01602080910402602001604051908101604052809291908181526020018280546139769061584a565b80156139c35780601f10613998576101008083540402835291602001916139c3565b820191906000526020600020905b8154815290600101906020018083116139a657829003601f168201915b50505050508152602001600282015481526020016003820180546139e69061584a565b80601f0160208091040260200160405190810160405280929190818152602001828054613a129061584a565b8015613a5f5780601f10613a3457610100808354040283529160200191613a5f565b820191906000526020600020905b815481529060010190602001808311613a4257829003601f168201915b505050505081526020016004820160009054906101000a900460ff166002811115613a8d57613a8c614aca565b5b6002811115613a9f57613a9e614aca565b5b81526020016004820160019054906101000a900473ffffffffffffffffffffffffffffffffffffffff1673ffffffffffffffffffffffffffffffffffffffff1673ffffffffffffffffffffffffffffffffffffffff168152602001600582015481526020016006820160009054906101000a900473ffffffffffffffffffffffffffffffffffffffff1673ffffffffffffffffffffffffffffffffffffffff1673ffffffffffffffffffffffffffffffffffffffff1681526020016007820160009054906101000a900473ffffffffffffffffffffffffffffffffffffffff1673ffffffffffffffffffffffffffffffffffffffff1673ffffffffffffffffffffffffffffffffffffffff16815250509050600081608001519050613bc261490d565b613bca614884565b613bd2614944565b60006002811115613be657613be5614aca565b5b846002811115613bf957613bf8614aca565b5b1415613c16578460a001519550613c0f86613ce6565b9250613cc8565b600280811115613c2957613c28614aca565b5b846002811115613c3c57613c3b614aca565b5b1415613c59578460e001519550613c5286613e37565b9150613cc7565b600560008d815260200190815260200160002060018660c00151613c7d9190615986565b81548110613c8e57613c8d6157ec565b5b9060005260206000200160009054906101000a900473ffffffffffffffffffffffffffffffffffffffff169550613cc486613f88565b90505b5b83868484849a509a509a509a509a5050505050505091939590929450565b613cee61490d565b6000600260008473ffffffffffffffffffffffffffffffffffffffff1673ffffffffffffffffffffffffffffffffffffffff1681526020019081526020016000206040518060600160405290816000820160009054906101000a900473ffffffffffffffffffffffffffffffffffffffff1673ffffffffffffffffffffffffffffffffffffffff1673ffffffffffffffffffffffffffffffffffffffff168152602001600182018054613da09061584a565b80601f0160208091040260200160405190810160405280929190818152602001828054613dcc9061584a565b8015613e195780601f10613dee57610100808354040283529160200191613e19565b820191906000526020600020905b815481529060010190602001808311613dfc57829003601f168201915b50505050508152602001600282015481525050905080915050919050565b613e3f614884565b6000600460008473ffffffffffffffffffffffffffffffffffffffff1673ffffffffffffffffffffffffffffffffffffffff1681526020019081526020016000206040518060600160405290816000820160009054906101000a900473ffffffffffffffffffffffffffffffffffffffff1673ffffffffffffffffffffffffffffffffffffffff1673ffffffffffffffffffffffffffffffffffffffff168152602001600182018054613ef19061584a565b80601f0160208091040260200160405190810160405280929190818152602001828054613f1d9061584a565b8015613f6a5780601f10613f3f57610100808354040283529160200191613f6a565b820191906000526020600020905b815481529060010190602001808311613f4d57829003601f168201915b50505050508152602001600282015481525050905080915050919050565b613f90614944565b6000600360008473ffffffffffffffffffffffffffffffffffffffff1673ffffffffffffffffffffffffffffffffffffffff1681526020019081526020016000206040518060600160405290816000820160009054906101000a900473ffffffffffffffffffffffffffffffffffffffff1673ffffffffffffffffffffffffffffffffffffffff1673ffffffffffffffffffffffffffffffffffffffff1681526020016001820180546140429061584a565b80601f016020809104026020016040519081016040528092919081815260200182805461406e9061584a565b80156140bb5780601f10614090576101008083540402835291602001916140bb565b820191906000526020600020905b81548152906001019060200180831161409e57829003601f168201915b50505050508152602001600282015481525050905080915050919050565b60606001805480602002602001604051908101604052809291908181526020016000905b828210156143af5783829060005260206000209060080201604051806101200160405290816000820154815260200160018201805461413b9061584a565b80601f01602080910402602001604051908101604052809291908181526020018280546141679061584a565b80156141b45780601f10614189576101008083540402835291602001916141b4565b820191906000526020600020905b81548152906001019060200180831161419757829003601f168201915b50505050508152602001600282015481526020016003820180546141d79061584a565b80601f01602080910402602001604051908101604052809291908181526020018280546142039061584a565b80156142505780601f1061422557610100808354040283529160200191614250565b820191906000526020600020905b81548152906001019060200180831161423357829003601f168201915b505050505081526020016004820160009054906101000a900460ff16600281111561427e5761427d614aca565b5b60028111156142905761428f614aca565b5b81526020016004820160019054906101000a900473ffffffffffffffffffffffffffffffffffffffff1673ffffffffffffffffffffffffffffffffffffffff1673ffffffffffffffffffffffffffffffffffffffff168152602001600582015481526020016006820160009054906101000a900473ffffffffffffffffffffffffffffffffffffffff1673ffffffffffffffffffffffffffffffffffffffff1673ffffffffffffffffffffffffffffffffffffffff1681526020016007820160009054906101000a900473ffffffffffffffffffffffffffffffffffffffff1673ffffffffffffffffffffffffffffffffffffffff1673ffffffffffffffffffffffffffffffffffffffff1681525050815260200190600101906140fd565b50505050905090565b600760205281600052604060002081815481106143d457600080fd5b90600052602060002001600091509150505481565b6006602052816000526040600020818154811061440557600080fd5b90600052602060002001600091509150505481565b61442261490d565b6000600260003373ffffffffffffffffffffffffffffffffffffffff1673ffffffffffffffffffffffffffffffffffffffff16815260200190815260200160002060010180546144719061584a565b9050146144b3576040517f08c379a00000000000000000000000000000000000000000000000000000000081526004016144aa90615dfe565b60405180910390fd5b6144bb61490d565b33816000019073ffffffffffffffffffffffffffffffffffffffff16908173ffffffffffffffffffffffffffffffffffffffff1681525050828160200181905250600081604001818152505080600260003373ffffffffffffffffffffffffffffffffffffffff1673ffffffffffffffffffffffffffffffffffffffff16815260200190815260200160002060008201518160000160006101000a81548173ffffffffffffffffffffffffffffffffffffffff021916908373ffffffffffffffffffffffffffffffffffffffff16021790555060208201518160010190805190602001906145aa9291906147fe565b506040820151816002015590505080915050919050565b60606000600760008473ffffffffffffffffffffffffffffffffffffffff1673ffffffffffffffffffffffffffffffffffffffff16815260200190815260200160002080548060200260200160405190810160405280929190818152602001828054801561464e57602002820191906000526020600020905b81548152602001906001019080831161463a575b5050505050905080915050919050565b6000808390505b600183805490506146769190615986565b8110156146db578260018261468b91906159ba565b8154811061469c5761469b6157ec565b5b90600052602060002001548382815481106146ba576146b96157ec565b5b906000526020600020018190555080806146d39061593d565b915050614665565b50818054806146ed576146ec615e1e565b5b6001900381819060005260206000200160009055905581905092915050565b604051806101200160405280600081526020016060815260200160008152602001606081526020016000600281111561474857614747614aca565b5b8152602001600073ffffffffffffffffffffffffffffffffffffffff16815260200160008152602001600073ffffffffffffffffffffffffffffffffffffffff168152602001600073ffffffffffffffffffffffffffffffffffffffff1681525090565b8280548282559060005260206000209081019282156147ed5760005260206000209182015b828111156147ec5782548255916001019190600101906147d1565b5b5090506147fa919061497b565b5090565b82805461480a9061584a565b90600052602060002090601f01602090048101928261482c5760008555614873565b82601f1061484557805160ff1916838001178555614873565b82800160010185558215614873579182015b82811115614872578251825591602001919060010190614857565b5b509050614880919061497b565b5090565b6040518060600160405280600073ffffffffffffffffffffffffffffffffffffffff16815260200160608152602001600081525090565b8280548282559060005260206000209081019282156148fc5760005260206000209182015b828111156148fb5782548255916001019190600101906148e0565b5b509050614909919061497b565b5090565b6040518060600160405280600073ffffffffffffffffffffffffffffffffffffffff16815260200160608152602001600081525090565b6040518060600160405280600073ffffffffffffffffffffffffffffffffffffffff16815260200160608152602001600081525090565b5b8082111561499457600081600090555060010161497c565b5090565b6000604051905090565b600080fd5b600080fd5b6000819050919050565b6149bf816149ac565b81146149ca57600080fd5b50565b6000813590506149dc816149b6565b92915050565b600080604083850312156149f9576149f86149a2565b5b6000614a07858286016149cd565b9250506020614a18858286016149cd565b9150509250929050565b614a2b816149ac565b82525050565b600081519050919050565b600082825260208201905092915050565b60005b83811015614a6b578082015181840152602081019050614a50565b83811115614a7a576000848401525b50505050565b6000601f19601f8301169050919050565b6000614a9c82614a31565b614aa68185614a3c565b9350614ab6818560208601614a4d565b614abf81614a80565b840191505092915050565b7f4e487b7100000000000000000000000000000000000000000000000000000000600052602160045260246000fd5b60038110614b0a57614b09614aca565b5b50565b6000819050614b1b82614af9565b919050565b6000614b2b82614b0d565b9050919050565b614b3b81614b20565b82525050565b600073ffffffffffffffffffffffffffffffffffffffff82169050919050565b6000614b6c82614b41565b9050919050565b614b7c81614b61565b82525050565b600061012083016000830151614b9b6000860182614a22565b5060208301518482036020860152614bb38282614a91565b9150506040830151614bc86040860182614a22565b5060608301518482036060860152614be08282614a91565b9150506080830151614bf56080860182614b32565b5060a0830151614c0860a0860182614b73565b5060c0830151614c1b60c0860182614a22565b5060e0830151614c2e60e0860182614b73565b50610100830151614c43610100860182614b73565b508091505092915050565b60006020820190508181036000830152614c688184614b82565b905092915050565b600080fd5b600080fd5b7f4e487b7100000000000000000000000000000000000000000000000000000000600052604160045260246000fd5b614cb282614a80565b810181811067ffffffffffffffff82111715614cd157614cd0614c7a565b5b80604052505050565b6000614ce4614998565b9050614cf08282614ca9565b919050565b600067ffffffffffffffff821115614d1057614d0f614c7a565b5b614d1982614a80565b9050602081019050919050565b82818337600083830152505050565b6000614d48614d4384614cf5565b614cda565b905082815260208101848484011115614d6457614d63614c75565b5b614d6f848285614d26565b509392505050565b600082601f830112614d8c57614d8b614c70565b5b8135614d9c848260208601614d35565b91505092915050565b600060208284031215614dbb57614dba6149a2565b5b600082013567ffffffffffffffff811115614dd957614dd86149a7565b5b614de584828501614d77565b91505092915050565b6000606083016000830151614e066000860182614b73565b5060208301518482036020860152614e1e8282614a91565b9150506040830151614e336040860182614a22565b508091505092915050565b60006020820190508181036000830152614e588184614dee565b905092915050565b614e6981614b61565b8114614e7457600080fd5b50565b600081359050614e8681614e60565b92915050565b600060208284031215614ea257614ea16149a2565b5b6000614eb084828501614e77565b91505092915050565b614ec281614b61565b82525050565b600082825260208201905092915050565b6000614ee482614a31565b614eee8185614ec8565b9350614efe818560208601614a4d565b614f0781614a80565b840191505092915050565b614f1b816149ac565b82525050565b6000606082019050614f366000830186614eb9565b8181036020830152614f488185614ed9565b9050614f576040830184614f12565b949350505050565b60008060008060808587031215614f7957614f786149a2565b5b600085013567ffffffffffffffff811115614f9757614f966149a7565b5b614fa387828801614d77565b9450506020614fb4878288016149cd565b935050604085013567ffffffffffffffff811115614fd557614fd46149a7565b5b614fe187828801614d77565b9250506060614ff2878288016149cd565b91505092959194509250565b600081519050919050565b600082825260208201905092915050565b6000819050602082019050919050565b60006150368383614a22565b60208301905092915050565b6000602082019050919050565b600061505a82614ffe565b6150648185615009565b935061506f8361501a565b8060005b838110156150a0578151615087888261502a565b975061509283615042565b925050600181019050615073565b5085935050505092915050565b600060208201905081810360008301526150c7818461504f565b905092915050565b6000602082840312156150e5576150e46149a2565b5b60006150f3848285016149cd565b91505092915050565b600081519050919050565b600082825260208201905092915050565b6000819050602082019050919050565b60006060830160008301516151406000860182614b73565b50602083015184820360208601526151588282614a91565b915050604083015161516d6040860182614a22565b508091505092915050565b60006151848383615128565b905092915050565b6000602082019050919050565b60006151a4826150fc565b6151ae8185615107565b9350836020820285016151c085615118565b8060005b858110156151fc57848403895281516151dd8582615178565b94506151e88361518c565b925060208a019950506001810190506151c4565b50829750879550505050505092915050565b60006060830160008301516152266000860182614b73565b506020830151848203602086015261523e8282614a91565b91505060408301516152536040860182614a22565b508091505092915050565b600060808201905081810360008301526152788187614b82565b9050818103602083015261528c8186615199565b905081810360408301526152a0818561520e565b905081810360608301526152b48184614dee565b905095945050505050565b60006060830160008301516152d76000860182614b73565b50602083015184820360208601526152ef8282614a91565b91505060408301516153046040860182614a22565b508091505092915050565b6000602082019050818103600083015261532981846152bf565b905092915050565b61533a81614b20565b82525050565b600061012082019050615356600083018c614f12565b8181036020830152615368818b614ed9565b9050615377604083018a614f12565b81810360608301526153898189614ed9565b90506153986080830188615331565b6153a560a0830187614eb9565b6153b260c0830186614f12565b6153bf60e0830185614eb9565b6153cd610100830184614eb9565b9a9950505050505050505050565b60006020820190506153f06000830184614f12565b92915050565b600060208201905061540b6000830184614eb9565b92915050565b6004811061542257615421614aca565b5b50565b600081905061543382615411565b919050565b600061544382615425565b9050919050565b61545381615438565b82525050565b600060208201905061546e600083018461544a565b92915050565b6000806040838503121561548b5761548a6149a2565b5b600061549985828601614e77565b92505060206154aa858286016149cd565b9150509250929050565b600060a0820190506154c96000830188615331565b6154d66020830187614eb9565b81810360408301526154e8818661520e565b905081810360608301526154fc8185614dee565b9050818103608083015261551081846152bf565b90509695505050505050565b60006020820190508181036000830152615536818461520e565b905092915050565b600081519050919050565b600082825260208201905092915050565b6000819050602082019050919050565b6000610120830160008301516155836000860182614a22565b506020830151848203602086015261559b8282614a91565b91505060408301516155b06040860182614a22565b50606083015184820360608601526155c88282614a91565b91505060808301516155dd6080860182614b32565b5060a08301516155f060a0860182614b73565b5060c083015161560360c0860182614a22565b5060e083015161561660e0860182614b73565b5061010083015161562b610100860182614b73565b508091505092915050565b6000615642838361556a565b905092915050565b6000602082019050919050565b60006156628261553e565b61566c8185615549565b93508360208202850161567e8561555a565b8060005b858110156156ba578484038952815161569b8582615636565b94506156a68361564a565b925060208a01995050600181019050615682565b50829750879550505050505092915050565b600060208201905081810360008301526156e68184615657565b905092915050565b7f4f6e6c79207261696c776179732063616e20706572666f726d2074686973206160008201527f6374696f6e000000000000000000000000000000000000000000000000000000602082015250565b600061574a602583614ec8565b9150615755826156ee565b604082019050919050565b600060208201905081810360008301526157798161573d565b9050919050565b7f50726f6475637420646f6573206e6f7420657869737400000000000000000000600082015250565b60006157b6601683614ec8565b91506157c182615780565b602082019050919050565b600060208201905081810360008301526157e5816157a9565b9050919050565b7f4e487b7100000000000000000000000000000000000000000000000000000000600052603260045260246000fd5b7f4e487b7100000000000000000000000000000000000000000000000000000000600052602260045260246000fd5b6000600282049050600182168061586257607f821691505b602082108114156158765761587561581b565b5b50919050565b7f50726f6475637420686173206265656e207261696c7761795f636f6e6669726d60008201527f6564206f7220636f616c7472616e736665726564000000000000000000000000602082015250565b60006158d8603483614ec8565b91506158e38261587c565b604082019050919050565b60006020820190508181036000830152615907816158cb565b9050919050565b7f4e487b7100000000000000000000000000000000000000000000000000000000600052601160045260246000fd5b6000615948826149ac565b91507fffffffffffffffffffffffffffffffffffffffffffffffffffffffffffffffff82141561597b5761597a61590e565b5b600182019050919050565b6000615991826149ac565b915061599c836149ac565b9250828210156159af576159ae61590e565b5b828203905092915050565b60006159c5826149ac565b91506159d0836149ac565b9250827fffffffffffffffffffffffffffffffffffffffffffffffffffffffffffffffff03821115615a0557615a0461590e565b5b828201905092915050565b6000608082019050615a256000830187614f12565b615a326020830186614eb9565b615a3f6040830185614eb9565b615a4c6060830184614f12565b95945050505050565b7f54686973206164647265737320697320616c726561647920726567697374657260008201527f6564206173207261696c77617900000000000000000000000000000000000000602082015250565b6000615ab1602d83614ec8565b9150615abc82615a55565b604082019050919050565b60006020820190508181036000830152615ae081615aa4565b9050919050565b7f4f6e6c7920636f616c2070726f6475636572732063616e20706572666f726d2060008201527f7468697320616374696f6e000000000000000000000000000000000000000000602082015250565b6000615b43602b83614ec8565b9150615b4e82615ae7565b604082019050919050565b60006020820190508181036000830152615b7281615b36565b9050919050565b7f4f6e6c7920636f616c5f70726f6475636572732063616e206164642070726f6460008201527f7563740000000000000000000000000000000000000000000000000000000000602082015250565b6000615bd5602383614ec8565b9150615be082615b79565b604082019050919050565b60006020820190508181036000830152615c0481615bc8565b9050919050565b6000606082019050615c206000830186614f12565b615c2d6020830185614eb9565b615c3a6040830184614f12565b949350505050565b7f4f6e6c7920656c6563747269636974792070726f64756365722063616e20706560008201527f72666f726d207468697320616374696f6e000000000000000000000000000000602082015250565b6000615c9e603183614ec8565b9150615ca982615c42565b604082019050919050565b60006020820190508181036000830152615ccd81615c91565b9050919050565b7f50726f6475637420686173206e6f74206265656e207261696c7761795f636f6e60008201527f6669726d6564206f7220686173206265656e20616c726561647920636f616c7460208201527f72616e7366657265640000000000000000000000000000000000000000000000604082015250565b6000615d56604983614ec8565b9150615d6182615cd4565b606082019050919050565b60006020820190508181036000830152615d8581615d49565b9050919050565b7f54686973206164647265737320697320616c726561647920726567697374657260008201527f656420617320636f616c2070726f647563657200000000000000000000000000602082015250565b6000615de8603383614ec8565b9150615df382615d8c565b604082019050919050565b60006020820190508181036000830152615e1781615ddb565b9050919050565b7f4e487b7100000000000000000000000000000000000000000000000000000000600052603160045260246000fdfea2646970667358221220025b2c4bd087fb93eadab02bc9b3e32babd11f0ee982c90ceda9c786f20147df64736f6c634300080b0033",
  "immutableReferences": {},
  "source": "// SPDX-License-Identifier: MIT\npragma solidity >=0.4.22 <0.9.0;\n\ncontract TrackMine {\n    enum Role {\n        coal_producer,\n        railway,\n        elec_producer,\n        not_registered\n    }\n\n    enum Stage {\n        coalproduced,\n        railway_confirmed,\n        coaltransferred\n    }\n\n    struct Product {\n        uint256 id;\n        string name;\n        uint256 price;\n        string ipfs_hash;\n        Stage stage;\n        address coal_producer;\n        uint256 total_railways;\n        address elec_producer;\n        address currentOwner;\n    }\n\n    struct CoalProducer {\n        address id;\n        string name;\n        uint256 total_products;\n    }\n\n    struct Railway {\n        address id;\n        string name;\n        uint256 total_products;\n    }\n\n    struct ElecProducer {\n        address id;\n        string name;\n        uint256 total_orders;\n    }\n\n    uint256 public total_products;\n    Product[] public products;\n    mapping(address => CoalProducer) public coal_producers;\n    mapping(address => Railway) public railways;\n    mapping(address => ElecProducer) public elec_producers;\n    mapping(uint256 => address[]) public Product_Railways;\n\n    mapping(address => uint256[]) public coal_producer_inventory;\n    mapping(address => uint256[]) public railway_inventory;\n    mapping(address => uint256[]) public elec_producer_orders;\n\n    address[] address_array;\n\n    event TrackMine_deployed(string _message);\n    event Product_Added(\n        uint256 _productId,\n        address _coalProducerAddress,\n        uint256 _time\n    );\n    event Product_RailwayConfirmed(\n        uint256 _productId,\n        address _coalProducerAddress,\n        address _railwayAddress,\n        uint256 _time\n    );\n    event Product_CoalTransferred(\n        uint256 _productId,\n        address _railwayAddress,\n        address _elecProducerAddress,\n        uint256 _time\n    );\n\n    constructor() {\n        total_products = 0;\n        emit TrackMine_deployed(\"TrackMine has been deployed\");\n    }\n\n    modifier isCoalProducer(address _coalProducerAddress) {\n        require(\n            coal_producers[_coalProducerAddress].id != address(0x0),\n            \"Only coal producers can perform this action\"\n        );\n        _;\n    }\n\n    modifier isRailway(address _railwayAddress) {\n        require(\n            railways[_railwayAddress].id != address(0x0),\n            \"Only railways can perform this action\"\n        );\n        _;\n    }\n\n    modifier isElecProducer(address _elecProducerAddress) {\n        require(\n            elec_producers[_elecProducerAddress].id != address(0x0),\n            \"Only electricity producer can perform this action\"\n        );\n        _;\n    }\n\n    function removeElement(uint256 index, uint256[] storage array)\n        internal\n        returns (uint256[] storage)\n    {\n        for (uint256 i = index; i < array.length - 1; i++) {\n            array[i] = array[i + 1];\n        }\n        array.pop();\n        return array;\n    }\n\n    function getProducts() public view returns (Product[] memory) {\n        return products;\n    }\n\n    function addCoalProducer(string memory _name)\n        public\n        payable\n        returns (CoalProducer memory)\n    {\n        require(\n            bytes(coal_producers[msg.sender].name).length == 0,\n            \"This address is already registered as coal producer\"\n        );\n\n        CoalProducer memory _coal_producer;\n        _coal_producer.id = msg.sender;\n        _coal_producer.name = _name;\n        _coal_producer.total_products = 0;\n\n        coal_producers[msg.sender] = _coal_producer;\n\n        return _coal_producer;\n    }\n\n    function addRailway(string memory _name)\n        public\n        payable\n        returns (Railway memory)\n    {\n        require(\n            bytes(railways[msg.sender].name).length == 0,\n            \"This address is already registered as railway\"\n        );\n\n        Railway memory _railway;\n        _railway.id = msg.sender;\n        _railway.name = _name;\n        _railway.total_products = 0;\n\n        railways[msg.sender] = _railway;\n\n        return _railway;\n    }\n\n    function addElecProducer(string memory _name)\n        public\n        payable\n        returns (ElecProducer memory)\n    {\n        require(\n            bytes(elec_producers[msg.sender].name).length == 0,\n            \"This address is already registered as railway\"\n        );\n\n        ElecProducer memory _elec_producer;\n        _elec_producer.id = msg.sender;\n        _elec_producer.name = _name;\n\n        elec_producers[msg.sender] = _elec_producer;\n\n        return _elec_producer;\n    }\n\n    function addProduct(\n        string memory _name,\n        uint256 _price,\n        string memory _ipfs_hash,\n        uint256 _time\n    ) public payable isCoalProducer(msg.sender) returns (Product memory) {\n        require(\n            coal_producers[msg.sender].id != address(0),\n            \"Only coal_producers can add product\"\n        );\n\n        //get the coal producer\n        CoalProducer memory _coal_producer = coal_producers[msg.sender];\n\n        //create the product\n        Product memory _product;\n        _product.id = total_products;\n        _product.name = _name;\n        _product.price = _price;\n        _product.ipfs_hash = _ipfs_hash;\n        _product.coal_producer = _coal_producer.id;\n        _product.stage = Stage.coalproduced;\n        _product.total_railways = 0;\n        _product.currentOwner = msg.sender;\n\n        //add the product to records\n        products.push(_product);\n        total_products += 1;\n\n        //add the product to the coal producer inventory records\n        coal_producer_inventory[msg.sender].push(_product.id);\n        _coal_producer.total_products += 1;\n        coal_producers[msg.sender] = _coal_producer;\n\n        //Add into proper mappings\n        Product_Railways[_product.id] = address_array;\n\n        emit Product_Added(_product.id, msg.sender, _time);\n\n        return _product;\n    }\n\n    function releaseProduct(uint256 _productId, uint256 _time)\n        public\n        payable\n        isRailway(msg.sender)\n        returns (Product memory)\n    {\n        require(_productId < total_products, \"Product does not exist\");\n\n        //Get the product\n        Product memory _product = products[_productId];\n\n        //check if the product has already been railway_confirmed or coalproduced\n        require(\n            _product.stage == Stage.coalproduced,\n            \"Product has been railway_confirmed or coaltransferred\"\n        );\n\n        //Shift ownership from coal producer to Railway\n        Product_Railways[_productId].push(msg.sender);\n        _product.total_railways++;\n        _product.stage = Stage.railway_confirmed;\n        _product.currentOwner = msg.sender;\n\n        //Remove the element from the inventory of coal producer and update count\n        CoalProducer memory _coal_producer = coal_producers[\n            _product.coal_producer\n        ];\n        for (uint256 i = 0; i < _coal_producer.total_products; i++) {\n            if (\n                coal_producer_inventory[_product.coal_producer][i] == _productId\n            ) {\n                coal_producer_inventory[_product.coal_producer] = removeElement(\n                    i,\n                    coal_producer_inventory[_product.coal_producer]\n                );\n                // delete coal_producer_inventory[_product.coal_producer][i];\n                break;\n            }\n        }\n        _coal_producer.total_products -= 1;\n        coal_producers[_product.coal_producer] = _coal_producer;\n\n        //Add the product to railway's inventory and update count\n        railway_inventory[msg.sender].push(_product.id);\n        Railway memory _railway = railways[msg.sender];\n        _railway.total_products += 1;\n        railways[msg.sender] = _railway;\n\n        //save the updated product details\n        products[_productId] = _product;\n\n        emit Product_RailwayConfirmed(\n            _productId,\n            _product.coal_producer,\n            msg.sender,\n            _time\n        );\n\n        return _product;\n    }\n\n    function buyProduct(uint256 _productId, uint256 _time)\n        public\n        payable\n        isElecProducer(msg.sender)\n        returns (Product memory)\n    {\n        require(_productId < total_products, \"Product does not exist\");\n\n        //Get the product\n        Product memory _product = products[_productId];\n\n        //check if the product has already been railway_confirmed or coalproduced\n        require(\n            _product.stage == Stage.railway_confirmed,\n            \"Product has not been railway_confirmed or has been already coaltransferred\"\n        );\n\n        //Get the details of the railway who is selling\n        address _railwayId = Product_Railways[_product.id][\n            _product.total_railways - 1\n        ];\n        Railway memory _railway = railways[_railwayId];\n\n        //Get the details of the electricity producer\n        ElecProducer memory _elec_producer = elec_producers[msg.sender];\n\n        //Shift ownership from railway to electricity producer\n        _product.stage = Stage.coaltransferred;\n        _product.elec_producer = _elec_producer.id;\n        _product.currentOwner = msg.sender;\n\n        //Remove the element from the inventory of railway and update count\n        address _current_railway_address = Product_Railways[_productId][\n            Product_Railways[_productId].length - 1\n        ];\n        Railway memory _current_railway = railways[\n            _current_railway_address\n        ];\n        for (uint256 i = 0; i < _current_railway.total_products; i++) {\n            if (\n                railway_inventory[_current_railway_address][i] == _productId\n            ) {\n                railway_inventory[_current_railway_address] = removeElement(\n                    i,\n                    railway_inventory[_current_railway_address]\n                );\n                // delete railway_inventory[_current_railway_address][i];\n                break;\n            }\n        }\n        _current_railway.total_products -= 1;\n        railways[_current_railway_address] = _current_railway;\n\n        //Add the product to electricity producer's orders and update count\n        elec_producer_orders[msg.sender].push(_product.id);\n        _elec_producer.total_orders += 1;\n        elec_producers[msg.sender] = _elec_producer;\n\n        //save the updated product details\n        products[_productId] = _product;\n\n        emit Product_CoalTransferred(_productId, _railway.id, msg.sender, _time);\n\n        return _product;\n    }\n\n    function getCoalProducerDetails(address _coal_producerId)\n        public\n        view\n        returns (CoalProducer memory)\n    {\n        CoalProducer memory _coal_producer = coal_producers[_coal_producerId];\n        return _coal_producer;\n    }\n\n    function getCoalProducerInventory(address _coal_producerId)\n        public\n        view\n        returns (uint256[] memory)\n    {\n        uint256[] memory _product_ids = coal_producer_inventory[_coal_producerId];\n        return _product_ids;\n    }\n\n    function getRailwayDetails(address _railwayId)\n        public\n        view\n        returns (Railway memory)\n    {\n        Railway memory _railway = railways[_railwayId];\n        return _railway;\n    }\n\n    function getRailwayInventory(address _railwayId)\n        public\n        view\n        returns (uint256[] memory)\n    {\n        uint256[] memory _product_ids = railway_inventory[_railwayId];\n        return _product_ids;\n    }\n\n    function getElecProducerDetails(address _elecProducerId)\n        public\n        view\n        returns (ElecProducer memory)\n    {\n        ElecProducer memory _elec_producer = elec_producers[_elecProducerId];\n        return _elec_producer;\n    }\n\n    function getElecProducerOrders(address _elecProducerId)\n        public\n        view\n        returns (uint256[] memory)\n    {\n        uint256[] memory _product_ids = elec_producer_orders[_elecProducerId];\n        return _product_ids;\n    }\n\n    function getProductDetails(uint256 _productId)\n        public\n        view\n        returns (\n            Product memory,\n            Railway[] memory,\n            CoalProducer memory,\n            ElecProducer memory\n        )\n    {\n        //Get the product\n        Product memory _product = products[_productId];\n\n        //Get all the railways addresses\n        address[] memory _railway_addresses = Product_Railways[_productId];\n\n        //Initialize an empty reailters array\n        Railway[] memory _railways = new Railway[](_product.total_railways);\n\n        //Get the CoalProducer\n        CoalProducer memory _coal_producer = getCoalProducerDetails(\n            _product.coal_producer\n        );\n\n        //Get the electricity Producer\n        ElecProducer memory _elec_producer = getElecProducerDetails(_product.elec_producer);\n\n        //Push all the railways in the _railways array\n        for (uint256 i = 0; i < _railway_addresses.length; i++) {\n            _railways[i] = getRailwayDetails(_railway_addresses[i]);\n        }\n        return (_product, _railways, _coal_producer, _elec_producer);\n    }\n\n    function getCurrentStatus(uint256 _productId)\n        public\n        view\n        returns (\n            Stage,\n            address,\n            CoalProducer memory,\n            ElecProducer memory,\n            Railway memory\n        )\n    {\n        //Initilize an empty address for owner\n        address _owner_address;\n\n        //Get product details\n        Product memory _product = products[_productId];\n\n        //Get product stage\n        Stage _stage = _product.stage;\n\n        //Instantiate each user\n        CoalProducer memory _coal_producer;\n        ElecProducer memory _elec_producer;\n        Railway memory _railway;\n\n        //Check for each stage\n        if (_stage == Stage.coalproduced) {\n            _owner_address = _product.coal_producer;\n            _coal_producer = getCoalProducerDetails(_owner_address);\n        } else if (_stage == Stage.coaltransferred) {\n            _owner_address = _product.elec_producer;\n            _elec_producer = getElecProducerDetails(_owner_address);\n        } else {\n            _owner_address = Product_Railways[_productId][\n                _product.total_railways - 1\n            ];\n            _railway = getRailwayDetails(_owner_address);\n        }\n        return (_stage, _owner_address, _coal_producer, _elec_producer, _railway);\n    }\n\n    function getUserType(address _user) public view returns (Role) {\n        if (coal_producers[_user].id != address(0x0)) return Role.coal_producer;\n\n        if (railways[_user].id != address(0x0)) return Role.railway;\n\n        if (elec_producers[_user].id != address(0x0)) return Role.elec_producer;\n\n        return Role.not_registered;\n    }\n}\n",
  "sourcePath": "D:\\Blockchain Projects\\TrackMine-main\\contracts\\contracts\\TrackMine.sol",
  "compiler": {
    "name": "solc",
    "version": "0.8.11+commit.d7f03943.Emscripten.clang"
  },
  "schemaVersion": "3.4.11",
  "updatedAt": "2023-04-06T09:39:21.990Z",
  "networkType": "ethereum",
  "devdoc": {
    "kind": "dev",
    "methods": {},
    "version": 1
  },
  "userdoc": {
    "kind": "user",
    "methods": {},
    "version": 1
  }
}